:020000040800F2
:100000000000022011820108F14F0008FF4F000894
:10001000055000080B5000081150000800000000B7
:100020000000000000000000000000001750000861
:10003000255000080000000033500008415000081F
:10004000BB510008C7510008D5510008E351000812
:10005000F1510008FF5100080D5200081B52000822
:100060002952000837520008455200085352000830
:10007000615200086F5200087D5200088B52000840
:10008000995200085150000865500008A752000816
:10009000B5520008C3520008D1520008DF520008D0
:1000A000ED52000861820108FB5200080953000864
:1000B00079500008175300082553000833530008EF
:1000C000415300084F5300085D5300088D5000084D
:1000D0006B53000879530008A150000887530008AB
:1000E00095530008A3530008B1530008BF530008FC
:1000F000CD530008DB530008E9530008F75300080C
:100100000554000861820108215400082F5400089A
:100110003D5400084B540008595400086754000827
:10012000755400088354000891540008B550000825
:100130009F5400080000000000000000C95400089F
:10014000D7540008E5540008F3540008015500088E
:100150000F550008C95000081D550008DD50000863
:100160002B5500083955000847550008555500081B
:1001700063550008715500087F5500080000000015
:10018000000000009B550008000000000000000077
:10019000C55500080000000000000000EF550008F1
:1001A00000000000000000000000000027560008CA
:1001B00035560008515600087B5600086182010838
:0401C000618201084F
:1001D00010B5054C237833B9044B13B10448AFF381
:1001E00000800123237010BD9C000020000000004F
:1001F0004C96010808B5034B1BB103490348AFF304
:10020000008008BD00000000A00000204C960108FE
:1002100080B500AF00F057F800F0DAF8FCE7000016
:1002200080B500AF024800F02FFA00BF80BD00BFCC
:10023000F405002080B500AF024800F035FA00BF99
:1002400080BD00BFF405002080B500AF024800F07B
:100250003CFA00BF80BD00BFF405002080B500AFB0
:10026000024800F042FA00BF80BD00BFF405002044
:1002700080B582B000AF0346FB710B46BB711346DD
:100280007B710749074803F0E2F9BB790A22194656
:10029000044803F01EFB00BF0837BD4680BD00BF09
:1002A000649601082C09002080B483B000AF034697
:1002B000FB710B46BB7113467B7100BF0C37BD460B
:1002C0005DF8047B704780B584B000AF06224FF420
:1002D00016512D4803F0F2F8012243F239012B4860
:1002E00003F0ECF82A49294803F0C3FA64212948AD
:1002F00000F0B0F9284800F098FD284801F055FAC0
:100300002749284800F006FB2749264800F0EBFA69
:10031000224B244A5A602549254816F0E4FB25491A
:10032000234816F0EEFB2449214816F0F8FB234938
:100330001F4816F002FC22491D4816F00CFC21490A
:100340001B4816F016FC0021194816F020FC00236B
:10035000FB60FB680A2B08DC3A46FB68134400226A
:100360001A70FB680133FB60F3E73B4619461648F9
:1003700001F0D1FA3B461946144801F0CCFA00BF0F
:100380001037BD4680BD00BF140900202C09002095
:100390006C9601080806002010070020B008002015
:1003A000811600081C060020F40500202102000828
:1003B0002406002035020008490200085D020008FA
:1003C00071020008A90200087D0200203704002005
:1003D00080B500AF414816F028FC414803F092F880
:1003E0000346002B14BF01230023DBB2002B08D0EF
:1003F0003B4803F0A3F80346DBB21946384803F044
:100400004FFA384B1B78002B1AD1374B1B68194613
:10041000364802F0D2FE344B1B681946344802F0CD
:10042000CCFE314B1B681946324802F0C6FE2E4BFB
:100430001B681946304802F0C0FE2A4B01221A7090
:100440002A4802F0F3FE0346012B0CBF01230023D0
:10045000DBB2002B05D003F055FF0A21274800F03E
:1004600047FD244802F0E2FE0346012B0CBF0123A6
:100470000023DBB2002B09D04FF4C871204801F0F3
:10048000B0F94FF4C8711F4800F0BFF8184802F0E7
:10049000CDFE0346012B0CBF01230023DBB2002B52
:1004A0000CD019490E4803F0E4F9144816F07CFA10
:1004B00003460A2219460A4803F00BFA0E4802F0D6
:1004C000B5FE0346012B0CBF01230023DBB2002B3A
:1004D00002D00E4801F0B8FB00BF80BD240600200A
:1004E0002C0900201800002050090020EC080020F2
:1004F000E0080020F8080020040900201007002070
:10050000B00800200806002070960108B8000020FE
:1005100080B582B000AF786039607B68012B32D142
:100520003B684FF6FF7293422DD1194816F049FAF5
:10053000184800F053F8184800F050F8174800F039
:10054000C7F91749174816F05DFA174A17491548B1
:1005500018F0ACFA164800F0F1F9164801F0C6F8A8
:100560001549164802F014FE42F21071144802F0C8
:100570000FFE4FF4C871134802F00AFE41F28831B1
:10058000114802F005FE00BF0837BD4680BD00BF20
:10059000B8000020F4050020080600201C060020FA
:1005A000140900202406002000000020677D0108B7
:1005B00010070020B008002040420F00E008002093
:1005C000EC080020F80800200409002080B500AFE6
:1005D0004FF6FF710120FFF79BFF80BD80B483B011
:1005E00000AF78607B6800221A607B680022DA60C6
:1005F0007B6800221A617B6800221A717B681846AA
:100600000C37BD465DF8047B704780B582B000AF03
:10061000786039607B68DA683B681A447B68DA6026
:100620007B681B69B3F57A7F10D97B68DA687B68D1
:100630001B699A420AD97B68DA687B681B69D21AFF
:100640007B68DA60786800F01FF8EEE700BF0837D3
:10065000BD4680BD80B483B000AF786039603A6831
:1006600013465B001344DB001A46064B93FBF2F380
:100670001A467B681A6100BF0C37BD465DF8047BE3
:10068000704700BF0087930380B582B000AF7860E9
:100690007B681B685A1C7B681A60786800F0AAF8AF
:1006A00000BF0837BD4680BD80B582B000AF78601E
:1006B0007B6800221A607B6801221A71786800F05A
:1006C00099F800BF0837BD4680BD80B582B000AF45
:1006D00078607B6800221A607B6801221A7103F03F
:1006E00047FE00BF0837BD4680BD80B582B000AF71
:1006F000786003F03DFE7B6800221A7100BF083766
:10070000BD4680BD80B487B000AFF860B9601346C5
:10071000FB7197F907300233052B22D801A252F85A
:1007200023F000BF3D070008450700084B070008FD
:1007300051070008570700085D0700084FF4C07311
:10074000FB820FE06023FB820CE01823FB8209E0B0
:100750000C23FB8206E00623FB8203E00323FB82DB
:1007600000E000BFB7F91620BB68B3FBF2F102FB53
:1007700001F29B1A002B0CBF012300237B757B7DAC
:1007800018461C37BD465DF8047B704780B485B0C1
:1007900000AF786039600023FB603B68074AA2FB2A
:1007A00003231B0903F003030133FB60FB681846B6
:1007B0001437BD465DF8047B704700BFABAAAAAAF8
:1007C00080B485B000AF786039600023FB603B687F
:1007D000074AA2FB03239B0903F003030133FB60D9
:1007E000FB6818461437BD465DF8047B704700BFB0
:1007F000ABAAAAAA80B582B000AF78607B681B68FC
:100800006FF0010219467868FFF77CFF0346002B62
:1008100019D02A492A4802F01AFF2A49284802F02A
:1008200016FF7B681B790A221946254802F041FF12
:100830002549234802F00BFF7B681B680A221946F2
:100840001F4803F0ACF87B681B684FF0FF32194675
:100850007868FFF757FF0346002B03D01B49184861
:1008600003F007F87B681B68002219467868FFF7D9
:1008700049FF0346002B07D07B689B68002B03D001
:100880007B689B68786898477B681B6801221946DB
:100890007868FFF737FF7B681B6802221946786883
:1008A000FFF730FF7B681B68032219467868FFF763
:1008B00029FF00BF0837BD4680BD00BF7C960108F8
:1008C0002C09002084960108909601089C96010846
:1008D00080B483B000AF78607B6818460C37BD46A3
:1008E0005DF8047B704780B483B000AF78603960F6
:1008F0007B681B6800229A607B683A681A607B6894
:100900001B687A6852689A6000BF0C37BD465DF874
:10091000047B704780B483B000AF786039607B6837
:100920003A685A607B681B687A6852689A6000BFB0
:100930000C37BD465DF8047B704700BFB0B582B090
:1009400000AF78607B68184601F0DAFA7B68043300
:10095000184617F051FA7B681833184617F04CFA0E
:100960007B682C33184617F047FA7B6840331846EB
:1009700017F042FA7B685433184617F03DFA7B684B
:100980006833184617F038FA7B687C33184617F03E
:1009900033FA7B689033184617F018FA7B689C335B
:1009A000184617F013FA7B68A833184617F00EFAAA
:1009B0007B68B433184617F009FA7B68C0331846D1
:1009C00017F004FA7B68CC33184602F06CF97B68A8
:1009D00003F58473184602F066F97B6803F5A27389
:1009E000184602F060F97B68002283F883217B6857
:1009F00003F5C273184602F08BFB7B68002283F874
:100A000092217B68002283F893217B686422C3F8DB
:100A100094217B686422C3F898217B686422C3F820
:100A20009C217B6803F15404102017F01AFC034644
:100A30001D461821284601F0B3F901222946204617
:100A400001F026FB7A687B6854331946104601F0A2
:100A500087FA7B6803F14004102017F002FC03467C
:100A60001D461921284601F09BF9012229462046FE
:100A700001F00EFB7A687B6840331946104601F09E
:100A80006FFA7B6803F12C04102017F0EAFB034691
:100A90001D461A21284601F083F9012229462046E5
:100AA00001F0F6FA7A687B682C331946104601F09B
:100AB00057FA7B6803F11804102017F0D2FB0346A5
:100AC0001D461B21284601F06BF9012229462046CC
:100AD00001F0DEFA7A687B6818331946104601F097
:100AE0003FFA7B681C1D102017F0BBFB03461D4618
:100AF0001C21284601F054F901222946204601F024
:100B0000C7FA7A687B6804331946104601F028FA60
:100B10007B6803F17C04102017F0A3FB03461D46FD
:100B20001D21284601F03CF901222946204601F00A
:100B3000AFFA7A687B687C331946104601F010FAE8
:100B40007B6803F16804102017F08BFB03461D46F9
:100B50001E21284601F024F901222946204601F0F1
:100B600097FA7A687B6868331946104601F0F8F9FD
:100B70007B6803F19004102017F073FB03461D46B9
:100B80002021284601F046F901222946204601F09D
:100B9000C1FB7A687B6890331946104601F0E0F992
:100BA0007B6803F19C04102017F05BFB03461D4695
:100BB0001F21284601F02EF901222946204601F086
:100BC000A9FB7A687B689C331946104601F0C8F986
:100BD0007B6803F1A804102017F043FB03461D4671
:100BE0002121284601F016F901222946204601F06C
:100BF00091FB7A687B68A8331946104601F0B0F97A
:100C00007B6803F1B404102017F02BFB03461D464C
:100C10000A21284601F0FEF801222946204601F06B
:100C200079FB7A687B68B4331946104601F098F96D
:100C30007B6803F1CC04102017F013FB03461D461C
:100C40001121284601F020F92946204601F010FC28
:100C50007A687B68CC331946104601F081F97B68CD
:100C6000CC33FA21184601F063FE7B68CC3340F2A6
:100C7000F631184601F072FE7B68CC33002118462D
:100C800001F0A0FE7B68CC336421184601F0A9FE78
:100C90007B68CC330521184602F0E9F87B6803F540
:100CA0008474102017F0DDFA03461D4610212846F3
:100CB00001F0EAF82946204601F0DAFB7A687B6801
:100CC00003F584731946104601F04AF97B6803F571
:100CD00084730A21184601F02BFE7B6803F58473A8
:100CE00040F2F631184601F039FE7B6803F5847353
:100CF0000021184601F066FE7B6803F58473FF212E
:100D0000184601F06EFE7B6803F5847305211846D2
:100D100002F0ADF87B6803F5A274102017F0A1FA79
:100D200003461D461221284601F0AEF8294620460A
:100D300001F09EFB7A687B6803F5A27319461046A2
:100D400001F00EF97B6803F5A2730A21184601F041
:100D5000EFFD7B6803F5A27340F2F631184601F00F
:100D6000FDFD7B6803F5A2732821184601F02AFED9
:100D70007B6803F5A273D021184601F032FE7B6830
:100D800003F5A2730521184602F071F8786800F0A7
:100D90004CF87B6845E0284617F074FA17F0CFFD51
:100DA000284617F06FFA17F0CAFD284617F06AFABE
:100DB00017F0C5FD284617F065FA17F0C0FD284664
:100DC00017F060FA17F0BBFD284617F05BFA17F032
:100DD000B6FD284617F056FA17F0B1FD284617F071
:100DE00051FA17F0ACFD284617F04CFA17F0A7FDA2
:100DF000284617F047FA17F0A2FD284617F042FAE6
:100E000017F09DFD284617F03DFA17F098FD28468B
:100E100017F038FA17F093FD284617F033FA17F059
:100E20008EFD18460837BD46B0BD80B582B000AF14
:100E300078607B6890330121184601F0DBFA7B680B
:100E40009C330121184601F0D5FA7B68A8330121B3
:100E5000184601F0CFFA7B68B4330121184601F03F
:100E6000C9FA7B68002283F881217B68002283F81D
:100E700082217B68002283F88021786800F0E6FBFD
:100E80007B6803F5A273184601F050FC03461A462E
:100E90004FF47A7303FB02F27B68C3F898217B68F6
:100EA000D3F898217B68C3F894217B68CC3318462B
:100EB00001F03CFC03461A464FF47A7303FB02F23E
:100EC0007B68C3F89C217B68D3F89831064A82FB83
:100ED00003129211DB17D31A19460448FFF7BAFB25
:100EE00000BF0837BD4680BDD34D62100806002004
:100EF00090B589B000AF786039607B683A6892B28B
:100F00001146184601F007F87B6803F5C2703B688C
:100F10004FF47A7202FB03F3194602F020F97B6862
:100F200093F88131FB777B6893F88131002B02D0F5
:100F30000023FB7700E000BF7B68FA7F83F8812104
:100F40007B680433184601F08DF90346002B14BF6B
:100F500001230023DBB2002B1ED03349334802F0BB
:100F600088FC7B6893F8933183F00103DAB27B68E5
:100F700083F893217B6893F89331002B06D07B682C
:100F800090330021184601F035FA05E07B68903374
:100F90000121184601F02EFA7B681833184601F03B
:100FA00061F90346002B14BF01230023DBB2002BA1
:100FB0000AD01F491D4802F05CFC7B689C33184630
:100FC00001F027FA03F0DCFF7B682C33184601F0B0
:100FD00049F90346002B14BF01230023DBB2002B89
:100FE00008D01449114802F044FC7B68A833184625
:100FF00001F00FFA7B684033184601F033F90346DD
:10100000002B14BF01230023DBB2002B19D00A49A7
:10101000064802F02EFC7B6893F88031002B0DD13E
:10102000786800F0F9FA0CE0689701082C090020B4
:10103000709701087897010880970108786800F098
:1010400005FB7B685433184601F00CF90346002B6E
:1010500014BF01230023DBB2002B03D0C549C648CF
:1010600002F007FC7B686833184601F0FBF8034682
:10107000002B14BF01230023DBB2002B0ED0BF498D
:10108000BD4802F0F6FB7B6893F88031002B02D15B
:10109000786800F0C1FABA48FFF706FB7B687C333A
:1010A000184601F0DFF80346002B14BF012300238C
:1010B000DBB2002B06D0B349AF4802F0DAFBB048F0
:1010C000FFF713FB7B68CC33184601F0F0F90346B9
:1010D000002B29D07B6803F28B147B68CC33184635
:1010E00001F024FB03461A46A749204617F064FF87
:1010F0007B68012283F891217B68CC33184601F08C
:1011000015FB03461A464FF47A7303FB02F27B6821
:10111000C3F89C217B68012283F892217B6803F548
:10112000C273184602F002F87B6803F58473184610
:1011300001F0BDF90346002B35D094498E4802F0EA
:1011400086FA7B6803F58473184601F0D1FA0346EA
:101150000A221946884802F0D7FB122002F06CF9E7
:1011600003460A221946844802F019FC7B6803F5FD
:10117000C7747B6803F58473184601F0D7FA0346F9
:101180001A468149204617F017FF7B68022283F830
:1011900091217B68012283F892217B6803F5C27359
:1011A000184601F0C3FF7B6803F5A273184601F0EF
:1011B0007EF90346002B44D075496F4802F047FA88
:1011C0007B6803F5A273184601F092FA03460A22DF
:1011D0001946694802F098FB122002F02DF90346E7
:1011E0000A221946644802F0DAFB7B6803F5A27311
:1011F000184601F09BFA03461A464FF47A7303FB34
:1012000002F27B68C3F894217B6803F5C273184629
:1012100001F08CFF7B6803F5C4747B6803F5A2734F
:10122000184601F083FA03461A465749204617F03C
:10123000C3FE7B68002283F891217B68012283F83A
:1012400092217B68D3F89C31524A82FB03125211DF
:10125000DB17D31AFB607B6893F89331002B00F007
:10126000A3807B68D3F898217B68D3F894319A42A5
:101270003ADD7B68D3F89821FB68D21A7B68C3F803
:1012800098217B68D3F898217B68D3F894319A42EF
:1012900005DA7B68D3F894217B68C3F898217B68D2
:1012A000D3F898313C4A82FB03129211DB17D31A10
:1012B00019463348FFF7CEF938492F4802F0C7F9ED
:1012C0007B68D3F898310A2219462B4802F011FAAC
:1012D0003349294802F0BBF97B68D3F894310A22DC
:1012E0001946254802F042FB7B68D3F898217B68B9
:1012F000D3F894319A4280F28A807B68D3F898219F
:10130000FB681A447B68C3F898217B68D3F898215E
:101310007B68D3F894319A4205DD7B68D3F8942139
:101320007B68C3F898217B68D3F898311A4A82FB0E
:1013300003129211DB17D31A19461148FFF78AF9E5
:1013400018490D4802F083F97B68D3F898310A22D6
:101350001946094802F0CDF91149074802F077F91A
:101360007B68D3F894310A221946034802F0FEFA4A
:101370004DE000BF889701082C09002090970108D4
:101380000806002098970108A0970108A497010873
:10139000AC9701081F85EB51D34D6210B897010837
:1013A000C8970108D89701087B68D3F898217B6813
:1013B000D3F894319A422AD07B68D3F894217B6881
:1013C000C3F898217B68D3F898318A4A82FB0312CC
:1013D0009211DB17D31A19468748FFF73BF9874963
:1013E000874802F034F97B68D3F898310A2219460D
:1013F000834802F07EF98349814802F028F97B682E
:10140000D3F894310A2219467D4802F0AFFA7B687E
:1014100093F88231062B00F2D98001A252F823F012
:101420003D1400084714000865140008A7140008BC
:10143000CB1400080D150008791500087B680122FF
:1014400083F88221D2E07B6893F89231002B00F080
:10145000C2807B68022283F882217B68002283F8A5
:101460009221B8E0684800F096FA0346002B00F09D
:10147000B4800F23BB61BB69002B0FDBBA69134635
:101480009B0013445B001344604A134419465E48B2
:1014900000F041FABB69013BBB61ECE77B680322CA
:1014A00083F8822199E0584800F0ABFA0346002BFC
:1014B00000F095807B68052283F882217B6803F524
:1014C000C273184601F032FE89E04F4800F063FA1B
:1014D0000346002B00F0858000237B617B690F2B86
:1014E0000FDC7A6913469B0013445B001344474AA0
:1014F00013441946444800F00EFA7B6901337B61BE
:10150000ECE77B68042283F882216AE07B6893F829
:101510009131012B04D0022B0AD0002B10D017E000
:101520007B6803F28B131946394800F013FB0FE078
:101530007B6803F5C7731946354800F00BFB07E0DD
:101540007B6803F5C4731946314800F003FB00BF04
:101550007B6803F5C273184601F0F5FD02462D4B7A
:101560009A428CBF01230023DBB2002B3BD07B6867
:10157000062283F8822136E0234800F00CFA034665
:10158000002B32D000233B613B690F2B0FDC3A6903
:1015900013469B0013445B0013441C4A1344194632
:1015A000194800F0B8F93B6901333B61ECE77B680F
:1015B000012283F882217B6803F5C273184601F08B
:1015C000B5FD7B68002283F892210EE07B68002243
:1015D00083F882210AE000BF08E000BF06E000BFF8
:1015E00004E000BF02E000BF00E000BF00BF2437FE
:1015F000BD4690BDD34D621008060020E897010853
:101600002C090020C89701087D020020A09601083F
:10161000B800002040420F0080B582B000AF786073
:101620007B68B4330021184600F0E4FE7B68012299
:1016300083F8802103490448FFF755F900BF0837B4
:10164000BD4680BD080600201C06002080B582B083
:1016500000AF78607B68B4330121184600F0CAFE01
:101660007B68002283F8802103490448FFF73BF997
:1016700000BF0837BD4680BDF40500201C060020D1
:1016800090B585B000AF78607B681B6819467868B4
:10169000FFF796F804467B681B6819467868FFF7E1
:1016A00075F8034607F10C0022460B4917F084FC3D
:1016B00007F10C031946094800F014FA08490948D3
:1016C00002F0D7F8084800F043FB074800F054FB4D
:1016D00000BF1437BD4690BDF8970108B800002040
:1016E000009801082C090020D0080020B0B582B075
:1016F00000AF78607B68184600F002FC7B68083316
:10170000184616F063FB7B681433184616F05EFB30
:101710007B682033184600F0CFFA7B6824331846E4
:1017200001F0F6FC7B6803F10804102016F099FD27
:1017300003461D461521284600F06CFB0122294670
:10174000204600F0E7FD7A687B68083319461046AA
:1017500000F006FC7B6803F11404102016F081FDF4
:1017600003461D462221284600F054FB012229464B
:10177000204600F0CFFD7A687B6814331946104686
:1017800000F0EEFB786800F010F87B6809E028466E
:1017900016F078FD17F0D3F8284616F073FD17F011
:1017A000CEF818460837BD46B0BD80B582B000AF50
:1017B00078607B6808330121184600F01BFE7B68C7
:1017C00014330121184600F015FE7B68002283F8CF
:1017D00028207B685B6800221A6000BF0837BD467E
:1017E00080BD80B584B000AF786039607B682433F9
:1017F0003A681146184601F0B2FC7B680121184690
:1018000000F089FB7B6893F82830FB737B6893F8C2
:101810002830012B06D0022B1FD0002B35D10123FD
:10182000FB7338E07B682033184600F059FA034612
:10183000002B14BF01230023DBB2002B28D002238E
:10184000FB737B6808330021184600F0D3FD7B68EA
:101850002433184601F06AFC1AE07B6824331846EA
:1018600001F071FC024642F210739A428CBF0123D0
:101870000023DBB2002B0DD00123FB737B68083300
:101880000121184600F0B6FD04E00023FB7302E0DE
:1018900000BF00E000BF7B68FA7B83F828207B68EC
:1018A0005B681B681B79002B06D07B681433002112
:1018B000184600F09FFD05E07B68143301211846AF
:1018C00000F098FD00BF1037BD4680BD80B485B0E4
:1018D00000AF78607B68002283F8B8217B68012222
:1018E00083F8B9210023FB60FB680A2B0CDCFB6842
:1018F000DBB20F33D9B27A68FB6813440A461A7018
:10190000FB680133FB60EFE77B6818461437BD4680
:101910005DF8047B704780B485B000AF78603960B3
:101920007B6893F8B9217B6893F8B8319A422CD040
:101930000023FB60FB680A2B15DCFB683A68134444
:101940007A6892F8B9211878796813469B00134495
:101950005B001344CA18FB68134402461A70FB6804
:101960000133FB60E6E77B6893F8B9310133DAB203
:101970007B6883F8B9217B6893F8B931272B05D9A7
:101980007B68002283F8B92100E000BF1437BD4610
:101990005DF8047B704780B485B000AF78607B68E9
:1019A00093F8B8217B6893F8B9319A420DD97B68D6
:1019B00093F8B9319AB27B6893F8B8319BB2D31AD5
:1019C0009BB227339BB2FB810CE07B6893F8B93163
:1019D0009AB27B6893F8B8319BB2D31A9BB2013BA1
:1019E0009BB2FB81B7F90E30C3F12803102BCCBF9B
:1019F00001230023DBB218461437BD465DF8047B93
:101A0000704780B485B000AF78607B6893F8B821E8
:101A10007B6893F8B9319A420DD97B6893F8B93154
:101A20009AB27B6893F8B8319BB2D31A9BB2273332
:101A30009BB2FB810CE07B6893F8B9319AB27B686A
:101A400093F8B8319BB2D31A9BB2013B9BB2FB8196
:101A5000B7F90E30002B01D1012300E00023184616
:101A60001437BD465DF8047B704780B485B000AF85
:101A700078607B6893F8B8311A4613469B0013448C
:101A80005B0013447A681344FB607B6893F8B831B9
:101A9000272B04D17B6893F8B931002B08D07B68E1
:101AA00093F8B83101337A6892F8B921934201D1A1
:101AB000FB6811E07B6893F8B8310133DAB27B68D8
:101AC00083F8B8217B6893F8B831272B03D97B685A
:101AD000002283F8B821FB6818461437BD465DF82C
:101AE000047B704780B584B000AF78603960002314
:101AF000FB60FB68032B20DCFB6807337A6800215E
:101B0000D154FB683A6813441B782F2B11D9FB681A
:101B10003A6813441B78392B0BD8FB683A68134496
:101B20001B78A3F13002FB6807330949895C7A68A6
:101B3000D154FB680133FB60DBE77B680B337A68C9
:101B400011461846FFF7E7FE00BF1037BD4680BDBF
:101B50000400002080B584B000AF786039600023B5
:101B6000FB60FB68022B20DCFB6802337A680021F3
:101B7000D154FB683A6813441B782F2B11D9FB68AA
:101B80003A6813441B78392B0BD8FB683A68134426
:101B90001B78A3F13002FB6802330949895C7A683B
:101BA000D154FB680133FB60DBE77B680B337A6859
:101BB00011461846FFF7AFFE00BF1037BD4680BD87
:101BC0000400002080B582B000AF78607B681B788D
:101BD00063F07F03DAB27B681A707B680B337A6834
:101BE00011461846FFF797FE00BF0837BD4680BD77
:101BF00080B582B000AF78607B681B7803F07F030C
:101C0000DAB27B681A707B680B337A681146184623
:101C1000FFF781FE00BF0837BD4680BD80B582B0AA
:101C200000AF78607B681B7883F00803DAB27B68CA
:101C30001A707B680B337A6811461846FFF76BFE03
:101C400000BF0837BD4680BD80B588B000AF786062
:101C50007B6803F2C5131846FFF707FFB8617B687E
:101C60000B331846FFF701FF78610023FB61FB6926
:101C70000A2B18DCFB697A6913441B785AB2FB699A
:101C8000B9690B441B785BB2DB435BB213405BB2B8
:101C9000D9B207F10802FB6913440A461A70FB69BE
:101CA0000133FB61E3E707F10803184602F040FB4C
:101CB00000BF2037BD4680BD80B483B000AF7860E0
:101CC0007B6800221A707B6800225A707B680022B1
:101CD0009A707B6818460C37BD465DF8047B7047E8
:101CE00080B485B000AF78600023FB737B685B78BD
:101CF000012B04D17B6800225A700123FB73FB7B0C
:101D000018461437BD465DF8047B704780B485B033
:101D100000AF78600023FB737B689B78012B04D1B4
:101D20007B6800229A700123FB73FB7B18461437F3
:101D3000BD465DF8047B704780B483B000AF786027
:101D40007B681B7818460C37BD465DF8047B7047EE
:101D500080B483B000AF78607B681B78012B05D01E
:101D60007B6801221A707B6801225A7000BF0C3711
:101D7000BD465DF8047B704780B483B000AF7860E7
:101D80007B681B78002B05D07B6800221A707B686B
:101D900001229A7000BF0C37BD465DF8047B704786
:101DA00080B582B000AF786039607B68184616F065
:101DB0004FF80E4A7B681A603B680221184601F012
:101DC000BBFA7B6801229A607B689B68184616F014
:101DD00072FE03461A467B685A607B683A68DA608E
:101DE0007B6818460837BD4680BD00BF2C980108A7
:101DF00080B582B000AF78607B68DB68184601F080
:101E0000E9FA02467B685B68D2B21A7000BF0837F5
:101E1000BD4680BD80B582B000AF786039607B6818
:101E2000184616F015F80E4A7B681A603B680121C7
:101E3000184601F081FA7B6801229A607B689B68F2
:101E4000184616F038FE03461A467B685A607B68CF
:101E50003A68DA607B6818460837BD4680BD00BF27
:101E60001C98010880B582B000AF78607B68DB68A1
:101E70001A467B685B681B781946104601F084FAA5
:101E800000BF0837BD4680BD80B582B000AF786026
:101E900039607B68184615F0DBFF0E4A7B681A60D4
:101EA0003B680221184601F047FA7B6802229A60DB
:101EB0007B689B68184616F0FEFD03461A467B6851
:101EC0005A607B683A68DA607B6818460837BD4616
:101ED00080BD00BF0C98010880B582B000AF78606B
:101EE0007B68DB68184601F0A7FA03469A087B680E
:101EF0005B6892B21A8000BF0837BD4680BD00BF44
:101F000080B483B000AF78607B6818460C37BD465C
:101F10005DF8047B704780B584B000AF78600B46F5
:101F20007B807B681B68FB60FB68002B14D07B8880
:101F3000184600F05DF8FB68002B0ED0FB681A68AD
:101F4000FB681B681B6804331B6879881046984738
:101F5000FB685B68FB60EEE700BF1037BD4680BDE5
:101F600090B585B000AF78603960786800F027F8E8
:101F7000F860FB68002B0ED1082016F072F90346BA
:101F80001C46204615F078FF7B681C607B681B6848
:101F90003A681A600FE0082016F063F903461C4601
:101FA000204615F069FFFB685C60FB685B68FB60BE
:101FB000FB683A681A6000BF1437BD4690BD80B414
:101FC00085B000AF78607B681B68FB60FB68002B06
:101FD00007D0FB685B68002B03D0FB685B68FB6085
:101FE000F7E7FB6818461437BD465DF8047B704779
:101FF00080B483B000AF0346FB801F4B1A88FB8878
:1020000013449AB21C4B1A801B4B1A881B4B1B881B
:102010009A420ED9184B1A88184B1B88D31A9AB2B9
:10202000154B1A80164B1B7883F00103DAB2144B60
:102030001A70144B1A88FB8813449AB2114B1A80F9
:10204000104B1A88104B1B889A420ED90D4B1A88D8
:102050000D4B1B88D31A9AB20A4B1A800B4B1B7874
:1020600083F00103DAB2094B1A7000BF0C37BD468A
:102070005DF8047B704700BF1009002010000020AD
:10208000140000201209002012000020150000207A
:1020900080B584B000AFF860B9601346FB71FB688F
:1020A000BA685A60FB68FA791A73FB681B680433D4
:1020B0001B680121F8689847FB6800221A72FB68C8
:1020C00000229A73FB680022DA73FB6800221A74FC
:1020D000FB6800225A74FB6800225A7300BF103755
:1020E000BD4680BD80B485B000AF78600023FB732F
:1020F0007B689B7B002B0BD17B68DB7B002B07D1A4
:102100007B681B7C002B03D17B685B7C002B01D0A0
:102110000123FB73FB7B002B14BF01230023DBB2E5
:1021200018461437BD465DF8047B704780B586B00D
:1021300000AF78600B467B807B685A687B685B6881
:102140001B681B681046984707F10C03184600F0FF
:10215000F3FE7B685B6807F10C021146184615F028
:102160009CFEFB681A787B681B7B1946FB684A401B
:10217000D2B21A707B680A337A88D2B211461846F6
:1021800000F0ABFF7B681B7AFB757B681B7A012B29
:1021900023D0022B38D0002B00D044E0FB681B7802
:1021A000012B09D17B680A33184600F08AFF0346E9
:1021B000322B01D9012300E00023002B0AD07B68D9
:1021C0000A33184600F070FF0123FB757B6801227B
:1021D0009A7328E00023FB7525E0FB681B78012B30
:1021E00012D17B680A33184600F06BFF0346B3F543
:1021F0007A7F8CBF01230023DBB2002B04D00223A3
:10220000FB757B6801221A74FB681B78002B09D1CF
:102210007B680A33184600F047FF0023FB757B6894
:102220000122DA7300BF7B68FA7D1A7207F10C0392
:10223000184600F09AFE06E007F10C03184600F07D
:1022400094FE16F07CFB1837BD4680BD80B483B089
:1022500000AF78607B681B7A18460C37BD465DF886
:10226000047B704780B485B000AF78600023FB73B7
:102270007B689B7B012B04D17B6800229A7301232E
:10228000FB73FB7B18461437BD465DF8047B704733
:1022900080B485B000AF78600023FB737B68DB7B84
:1022A000012B04D17B680022DA730123FB73FB7BD3
:1022B00018461437BD465DF8047B704780B485B07E
:1022C00000AF78600023FB737B681B7C012B04D17B
:1022D0007B6800221A740123FB73FB7B18461437BA
:1022E000BD465DF8047B704780B485B000AF786070
:1022F0000023FB737B685B7C012B04D17B6800228D
:102300005A740123FB73FB7B18461437BD465DF8F6
:10231000047B704780B485B000AFF860B9601346A5
:10232000FB71FB68BA685A60FB68FA791A7200BFE1
:102330001437BD465DF8047B704780B586B000AFAA
:1023400078600B467B800023FB757B685B7A022BF1
:1023500006D0032B08D0002B0AD10123FB750AE01D
:102360001C4B1B78FB7506E01B4B1B78FB7502E0D2
:102370000023FB7500BF07F10C03184600F007FEB1
:102380007B681B7A1946FB68FA7D4A40D2B21A7004
:102390007B685B6807F10C021146184615F08FFD4B
:1023A0007B685A687B685B681B6804331B6810464F
:1023B000984707F10C03184600F002FE06E007F10B
:1023C0000C03184600F0FCFD16F0B9FA1837BD46AC
:1023D00080BD00BF140000201500002080B483B031
:1023E00000AF78607B685B7A18460C37BD465DF8B5
:1023F000047B704780B483B000AF78600B46FB70FD
:102400007B68FA785A7200BF0C37BD465DF8047BD2
:10241000704780B483B000AF78607B685B7A002B34
:1024200002D0012B04D007E07B6801225A7203E03E
:102430007B6800225A7200BF00BF0C37BD465DF8B2
:10244000047B704780B582B000AF78607B68184627
:1024500015F094FC054A7B681A607B6800221A72AA
:102460007B6818460837BD4680BD00BFB498010898
:1024700080B483B000AF786039607B683A685A6096
:1024800000BF0C37BD465DF8047B704780B483B055
:1024900000AF78607B681B7A002B01D0012300E03D
:1024A000002318460C37BD465DF8047B704780B4A6
:1024B00083B000AF78607B681B7A002B04D07B6808
:1024C00000221A72012300E0002318460C37BD4693
:1024D0005DF8047B704780B584B000AF78600B4630
:1024E0007B807B685A687B685B681B681B6810464A
:1024F000984707F10803184600F074FD7B685B6895
:1025000007F108021146184615F0C7FCBB681B8886
:102510009B10DAB27B685A727B685A7A7B689B7A26
:102520009A4206D07B6801221A727B685A7A7B68CD
:102530009A7207F10803184600F06DFD00BF1037CE
:10254000BD4680BD80B483B000AF78607B685B7AA5
:1025500018460C37BD465DF8047B704780B586B0E1
:1025600000AF78600B467B807B685A687B685B684D
:102570001B681B681046984707F10C03184600F0CB
:1025800031FD7B685B6807F10C021146184615F0B7
:1025900084FCFB681B88BB820023FB75BA8A7B68BE
:1025A0005A810023BB757B685A897B689B899A4254
:1025B00009D90123FB757B6893F90F30012B12D1E8
:1025C0000123BB750FE07B685A897B689B899A421F
:1025D00009D2FF23FB757B6893F90F30B3F1FF3FFE
:1025E00001D1FF23BB7597F91730002B32D07B68E0
:1025F0005B891A467B689B8919467B689B7B0B44E9
:102600009A4203D897F91630012B09D17B68012231
:102610001A727B685A897B689A817B68FA7DDA73C3
:102620007B685B891A467B689B8919467B689B7B24
:10263000CB1A9A4204D397F91630B3F1FF3F09D170
:102640007B6801221A727B685A897B689A817B6851
:10265000FA7DDA7307F10C03184600F0DCFC00BFCA
:102660001837BD4680BD80B483B000AF78600B469C
:10267000FB707B68FA789A7300BF0C37BD465DF833
:10268000047B704780B483B000AF78607B685B895F
:1026900018460C37BD465DF8047B704780B586B0A0
:1026A00000AF78600B467B807B685A687B685B680C
:1026B0001B681B681046984707F10C03184600F08A
:1026C00091FC7B685B6807F10C021146184615F017
:1026D000E4FBFB681B88FB82FA8A7B681A6207F1BD
:1026E0000C03184600F097FC00BF1837BD4680BDAC
:1026F00080B483B000AF78607B681B6A9BB21846D9
:102700000C37BD465DF8047B704780B483B000AFE2
:1027100078607B6800221A727B681B6A9B10DBB2B0
:1027200018460C37BD465DF8047B704780B487B00F
:1027300000AF78607B681B6A7B617B685B891A46A7
:102740007B69934202D27B685B897B617B689B8952
:102750001A467B69934202D97B689B897B617B68BF
:102760005B891A467B699B1A07EE903AF8EE676A16
:102770007B689B891A467B685B89D31A07EE903A7F
:10278000B8EEE77AC6EE877AC7ED047A7B68B3F9CC
:102790001A301A467B68B3F91830D31A07EE903A0C
:1027A000F8EEE77AC7ED037A7B6800221A727B683D
:1027B000B3F9183007EE903AB8EEE77AD7ED046A2D
:1027C000D7ED037A66EEA77A77EE277AFDEEE77A01
:1027D00017EE903A1BB218461C37BD465DF8047BD5
:1027E000704780B487B000AF78607B681B6A7B61FC
:1027F0007B685B891A467B69934202D27B685B895E
:102800007B617B689B891A467B69934202D97B680E
:102810009B897B617B685B891A467B699B1A07EE03
:10282000903AF8EE676A7B689B891A467B685B89F9
:10283000D31A07EE903AB8EEE77AC6EE877AC7ED7C
:10284000047A7B68DB8B1A467B689B8BD31A07EE76
:10285000903AF8EEE77AC7ED037A7B6800221A72A5
:102860007B689B8B07EE903AB8EEE77AD7ED046A67
:10287000D7ED037A66EEA77A77EE277AFCEEE77A51
:1028800017EE903A9BB218461C37BD465DF8047BA4
:10289000704780B487B000AF78607B681B6A7B614B
:1028A0007B685B891A467B69934202D27B685B89AD
:1028B0007B617B689B891A467B69934202D97B685E
:1028C0009B897B617B685B891A467B699B1A07EE53
:1028D000903AF8EE676A7B689B891A467B685B8949
:1028E000D31A07EE903AB8EEE77AC6EE877AC7EDCC
:1028F000047A7B6893ED057A7B68D3ED047A77EEF2
:10290000677AC7ED037A7B6800221A727B6893EDC1
:10291000047AD7ED046AD7ED037A66EEA77A77EEEC
:10292000277AB0EE670A1C37BD465DF8047B704716
:1029300080B483B000AF78600B467B807B88B3F5B2
:10294000806F02D340F2FF337B807B687A885A81A4
:1029500000BF0C37BD465DF8047B704780B483B080
:1029600000AF78600B467B807B88B3F5806F02D325
:1029700040F2FF337B807B687A889A8100BF0C37F6
:10298000BD465DF8047B704780B483B000AF7860CB
:1029900087ED000A7B683A681A6100BF0C37BD46B4
:1029A0005DF8047B704780B483B000AF786087ED3A
:1029B000000A7B683A685A6100BF0C37BD465DF873
:1029C000047B704780B483B000AF78600B467B8097
:1029D0007B687A881A8300BF0C37BD465DF8047B9C
:1029E000704780B483B000AF78600B467B807B6813
:1029F0007A885A8300BF0C37BD465DF8047B704768
:102A000080B483B000AF78600B467B807B687A88A7
:102A10009A8300BF0C37BD465DF8047B704780B4D5
:102A200083B000AF78600B467B807B687A88DA835E
:102A300000BF0C37BD465DF8047B704780B582B09F
:102A400000AF78607B68184615F058FA114A7B6829
:102A50001A607B68142283F824207B68012283F8A3
:102A600025207B68072283F826207B6828331021E5
:102A7000184615F077FA7B6830331021184615F0A8
:102A800071FA7B68002283F838207B681846083783
:102A9000BD4680BD5498010880B588B000AF78600D
:102AA0000B467B807B685A687B685B681B681B6889
:102AB0001046984707F10C03184600F093FA7B681C
:102AC0005B6807F10C021146184615F0E6F9FB6841
:102AD0001B88FB827B682833FA8A1146184615F05A
:102AE00069FA0023FB610023BB617B6893F8263001
:102AF0001A46BB69934210DA7B682833BA69D2B2AE
:102B00001146184615F085FA03461A46FB69134428
:102B1000FB61BB690133BB61E7E77B6803F130020E
:102B20007B6893F826301946FB6993FBF1F39BB25F
:102B30001946104615F03EFA7B6893F83830002BA2
:102B400044D17B6830330021184615F062FA034601
:102B50001A467B681B6A9A42CCBF01230023DBB272
:102B6000002B0CD07B6830330021184615F051FA49
:102B700003461A467B681A627B6801221A727B68D8
:102B800030330021184615F044FA034619467B6895
:102B90001B6A7A6892F824209B1A9942B4BF0123D9
:102BA0000023DBB2002B55D07B68012283F838204C
:102BB0007B6830330021184615F02BFA03461A467D
:102BC0007B681A627B6801221A7243E07B683033AB
:102BD0000021184615F01DFA03461A467B681B6A49
:102BE0009A42B4BF01230023DBB2002B0CD07B68D8
:102BF00030330021184615F00CFA03461A467B685C
:102C00001A627B6801221A727B68303300211846F1
:102C100015F0FFF9034619467B681B6A7A6892F83B
:102C2000242013449942CCBF01230023DBB2002BA4
:102C300010D07B68002283F838207B683033002175
:102C4000184615F0E6F903461A467B681A627B6857
:102C500001221A7207F10C03184600F0DCF900BFDC
:102C60002037BD4680BD80B483B000AF78600B468E
:102C7000FB707B68FA7883F8242000BF0C37BD46D0
:102C80005DF8047B704780B483B000AF78600B467A
:102C9000FB707B68FA7883F8262000BF0C37BD46AE
:102CA0005DF8047B704780B582B000AF78607B68C8
:102CB000184615F023F9124A7B681A607B683C229B
:102CC0009A847B682822DA847B6832221A857B68A2
:102CD000012283F82A207B68062283F82B207B6858
:102CE0002C331021184615F03DF97B683433102140
:102CF000184615F037F97B6818460837BD4680BD81
:102D00003C98010880B588B000AF78600B467B80A6
:102D10007B685A687B685B681B681B68104698472D
:102D200007F10803184600F05DF97B685B6807F15E
:102D300008021146184615F0B0F8BB681B88FB82E4
:102D40007B682C33FA8A1146184615F033F90023B4
:102D5000FB610023BB617B6893F82B301A46BB698B
:102D6000934210DA7B682C33BA69D2B21146184606
:102D700015F04FF903461A46FB691344FB61BB6922
:102D80000133BB61E7E77B6803F134027B6893F8AA
:102D90002B301946FB6993FBF1F39BB219461046A1
:102DA00015F008F97B6834330021184615F031F925
:102DB00003461A467B68B3F924309A42CCBF0123FC
:102DC0000023DBB2002B0DD07B6834330021184682
:102DD00015F01FF903461946786800F067F87B681C
:102DE00001221A727B6834330021184615F011F95C
:102DF00003461A467B68B3F926309A42B4BF0123D2
:102E00000023DBB2002B0DD07B6834330021184641
:102E100015F0FFF803461946786800F061F87B6802
:102E200001221A727B68B3F926301A467B68B3F91F
:102E300028305B1013443B617B68B3F928305B108A
:102E40001A463B699B1A9B027A68B2F92820C2F5A0
:102E50008062B3FBF2F31A467B681A6207F108033B
:102E6000184600F0D8F800BF2037BD4680BD80B4BA
:102E700083B000AF78600B46FB707B68FA7883F80C
:102E80002B2000BF0C37BD465DF8047B704780B433
:102E900083B000AF78600B467B807B687A881A85A8
:102EA00000BF0C37BD465DF8047B704780B483B02B
:102EB00000AF78600B467B80B7F902207B689A846C
:102EC0007B68B3F928309BB27A88D31A9BB21AB2C6
:102ED0007B68DA8400BF0C37BD465DF8047B704721
:102EE00080B483B000AF78600B467B80B7F90220D6
:102EF0007B68DA847B68B3F928309AB27B88134404
:102F00009BB21AB27B689A8400BF0C37BD465DF84D
:102F1000047B704780B483B000AF78607B684FF06B
:102F2000FF325A607B6800221A607B6818460C37B3
:102F3000BD465DF8047B704780B582B000AF786015
:102F40007B681846FFF7E6FF7B6801225A607B68C2
:102F50005B68184615F0AFFD03461A467B681A6099
:102F60007B6818460837BD4680BD80B582B000AF8B
:102F700078607B681B68002B04D07B681B68184650
:102F800015F063FC7B6818460837BD4680BD80B5E8
:102F900082B000AF78607B681846FFF7BBFF7B68A4
:102FA00001225A607B685B68184615F084FD034671
:102FB0001A467B681A607B6818460837BD4680BD94
:102FC00080B582B000AF78607B681B68002B04D0AE
:102FD0007B681B68184615F038FC7B681846083774
:102FE000BD4680BD80B582B000AF78607B68184672
:102FF000FFF790FF7B6802225A607B685B68184687
:1030000015F059FD03461A467B681A607B6818461E
:103010000837BD4680BD80B582B000AF78607B6860
:103020001B68002B04D07B681B68184615F00DFC4C
:103030007B6818460837BD4680BD80B487B000AFB6
:1030400078607B687B6100233B613B69072B06D876
:103050007B6901337B613B6901333B61F5E77B6849
:103060001B687B610023FB607B685B68FA689A429F
:1030700006DA7B6901337B61FB680133FB60F3E7B0
:1030800000BF1C37BD465DF8047B704780B483B039
:1030900000AF78607B6800221A807B6818460C3786
:1030A000BD465DF8047B704780B483B000AF7860A4
:1030B0007B6800221A8000BF0C37BD465DF8047B98
:1030C000704780B483B000AF78607B681B88184677
:1030D0000C37BD465DF8047B704780B483B000AF09
:1030E00078600B46FB707B681B884EF65F2293422C
:1030F00007D87B681A88FB789BB213449AB27B6826
:103100001A8000BF0C37BD465DF8047B7047000095
:1031100080B483B000AF78607B6800221A607B685F
:1031200018460C37BD465DF8047B704780B483B009
:1031300000AF78607B6800221A6000BF0C37BD4684
:103140005DF8047B704780B483B000AF78607B6823
:103150001B6818460C37BD465DF8047B704780B489
:1031600083B000AF786039607B681B68074A934280
:1031700005D87B681A683B681A447B681A6000BFF0
:103180000C37BD465DF8047B704700BFFF86930394
:1031900080B483B000AF786039607B6800221A7019
:1031A0007B6800225A603A687B689A607B681846A0
:1031B0000C37BD465DF8047B704780B483B000AF28
:1031C000786039607B685A683B689A4208DD7B68A2
:1031D0005B681A46144B1B68D31A1A467B685A6000
:1031E0007B685A687B689B6813441A463B68934225
:1031F00013D37B685A687B689B681A447B685A6063
:103200007B6893F90030002B03D17B6801221A7090
:10321000E6E77B6802221A70E2E700BF0C37BD4682
:103220005DF8047B704700BF1C00002080B485B0AF
:1032300000AF78607B681B78FB737B6800221A7094
:1032400097F90F3018461437BD465DF8047B704778
:1032500080B483B000AF786039603A687B689A6068
:1032600000BF0C37BD465DF8047B704780B500AFEA
:103270000449054800F014F90449054800F010F924
:1032800000BF80BDB40D002014090020240B0020D5
:103290002C09002080B584B000AF786000F07CFE7F
:1032A00003461A467B681344FB6000F075FE034634
:1032B0001A46FB68934234BF01230023DBB2002B84
:1032C00000D0F2E700F068FE03461A46FB6893421E
:1032D0008CBF01230023DBB2002B00D0F2E700BF3C
:1032E0001037BD4680BD80B582B000AF78603960D0
:1032F0007B68012B0AD13B684FF6FF72934205D1E0
:10330000044800F0BBF8044800F0B8F800BF0837E4
:10331000BD4680BD140900202C09002080B500AFF7
:103320004FF6FF710120FFF7DEFF80BD80B400AFD4
:10333000FEE780B400AFFEE780B588B000AF7860EC
:1033400039600F4A7B6852F82330FB6001233B61F0
:1033500000237B610023BB610A4A7B6852F823305B
:1033600003F1804303F500331A4607F10C031946B5
:1033700010460FF0EDFB00BF2037BD4680BD00BFFB
:1033800074990108E498010880B584B000AF7860B2
:1033900039600023FB733B68002B01D00123FB73D2
:1033A0000A4A7B6852F8233003F1804303F5003367
:1033B0001846074A7B6852F823309BB2FA7B1946BD
:1033C0000FF062FE00BF1037BD4680BDE4980108D3
:1033D0007499010880B582B000AF78600F4A7B68AD
:1033E00052F8233003F1804303F5003318460C4AAA
:1033F0007B6852F823309BB219460FF02DFE03462E
:10340000012B0CBF01230023DBB2002B01D00123D1
:1034100000E0002318460837BD4680BDE498010847
:103420007499010880B483B000AF786000BF0C3796
:10343000BD465DF8047B704780B485B000AF78600E
:103440000023FB607B68102B02D10B4B1B88FB60B9
:103450007B68112B02D1084B5B88FB607B68122BC9
:1034600002D1054B9B88FB60FB6818461437BD46AC
:103470005DF8047B704700BFBC09002080B582B0B6
:1034800000AF78607B68184614F022FE034A7B6820
:103490001A607B6818460837BD4680BD0C9A010843
:1034A00080B483B000AF786039607B683A681A6195
:1034B00000BF0C37BD465DF8047B704780B485B013
:1034C00000AFF860B9601346FB71FB79012B02D0A5
:1034D000062B02D002E000BF00E000BF00BF14379F
:1034E000BD465DF8047B704780B582B000AF786060
:1034F0007B681B6814331B687868984700BF0837DF
:10350000BD4680BD80B582B000AF78607B681B6926
:10351000184601F0F0FB034618460837BD4680BD4B
:1035200080B582B000AF78607B681B69184601F0F7
:1035300052FB034618460837BD4680BD80B582B0B1
:1035400000AF78607B681B69184601F0A7FB034653
:1035500018460837BD4680BD80B483B000AF7860A0
:103560004FF4807318460C37BD465DF8047B7047F6
:1035700080B483B000AF786000BF0C37BD465DF803
:10358000047B704780B582B000AF78600B46FB705B
:103590007B681A69FB781146184601F030FB01235D
:1035A00018460837BD4680BD80B586B000AFF860CC
:1035B000B9607A6000237B617B685A1E7A60002BB9
:1035C00014BF01230023DBB2002B16D0FB681B685D
:1035D0001A68BB68591CB9601B781946F86890478F
:1035E0000346002B14BF01230023DBB2002B03D0C2
:1035F0007B6901337B61DFE700BF7B6918461837C1
:10360000BD4680BD80B582B000AF78603960396852
:10361000786800F01CF8034618460837BD4680BDA0
:1036200090B583B000AF78603960386814F0B5FDAC
:103630000446386814F0A5FD03461A46214678680A
:1036400014F0D2FD034618460C37BD4690BD80B538
:1036500082B000AF786039603968786814F0A9FDED
:10366000034618460837BD4680BD80B582B000AF1E
:1036700078600B46FB707B681B681B68FA78114604
:1036800078689847034618460837BD4680BD80B520
:1036900084B000AFF8600B467A60FB72FB7A7A6800
:1036A0001946F86800F065F8034618461037BD461D
:1036B00080BD80B584B000AFF860B9607A607A6888
:1036C000B968F86800F015F8034618461037BD468B
:1036D00080BD80B584B000AFF860B9607A607A6868
:1036E000B968F86800F045F8034618461037BD463B
:1036F00080BD80B586B000AFF860B9607A607B6845
:10370000002B09D1FB681B681B68BA68D2B211464E
:10371000F8689847034628E07B680A2B1DD1BB68F0
:10372000002B12DA2D21F868FFF79FFF03467B611B
:10373000BB685B42BB60BB680A221946F86800F0B0
:1037400079F902467B6913440FE0BB680A221946E7
:10375000F86800F06FF9034607E0BB687A68D2B2F8
:103760001946F86800F066F9034618461837BD4652
:1037700080BD80B584B000AFF860B9607A607B68C6
:10378000002B09D1FB681B681B68BA68D2B21146CE
:10379000F8689847034607E07B68DBB21A46B968C9
:1037A000F86800F047F9034618461037BD4680BD5B
:1037B00080B584B000AFF86087ED000BB960BB68DE
:1037C000DBB2194697ED000BF86800F077F9034675
:1037D00018461037BD4680BD80B584B000AF786014
:1037E000396039687868FFF70DFF0346FB60786839
:1037F00000F019F80246FB681344FB60FB681846AA
:103800001037BD4680BD80B582B000AF78603960AA
:103810003B681B681B6879683868984703461846F8
:103820000837BD4680BD80B582B000AF78600449DE
:10383000786814F0BEFC034618460837BD4680BDC4
:10384000249A010880B584B000AF78603960396887
:103850007868FFF7E5FE0346FB607868FFF7E3FF53
:103860000246FB681344FB60FB6818461037BD46F0
:1038700080BD80B584B000AF786039603968786801
:10388000FFF7E5FE0346FB607868FFF7CCFF0246D2
:10389000FB681344FB60FB6818461037BD4680BDCB
:1038A00080B584B000AF78600B46FB70FB7819469A
:1038B0007868FFF7DAFE0346FB607868FFF7B3FF2E
:1038C0000246FB681344FB60FB6818461037BD4690
:1038D00080BD80B586B000AFF8600B467A60FB72A1
:1038E000FB7A7A681946F868FFF7D1FE03467B61D8
:1038F000F868FFF798FF02467B6913447B617B6998
:1039000018461837BD4680BD80B586B000AFF86058
:10391000B9607A607A68B968F868FFF7CAFE03464A
:103920007B61F868FFF77FFF02467B6913447B6188
:103930007B6918461837BD4680BD80B586B000AF9C
:10394000F860B9607A607A68B968F868FFF7C1FE14
:1039500003467B61F868FFF766FF02467B69134404
:103960007B617B6918461837BD4680BD80B586B03F
:1039700000AFF860B9607A607A68B968F868FFF7F4
:10398000B8FE03467B61F868FFF74DFF02467B698E
:1039900013447B617B6918461837BD4680BD80B5EE
:1039A00086B000AFF860B9607A607A68B968F86884
:1039B000FFF7DFFE03467B61F868FFF734FF02463E
:1039C0007B6913447B617B6918461837BD4680BD0F
:1039D00080B586B000AFF86087ED000BB960B968BC
:1039E00097ED000BF868FFF7E3FE03467B61F8688C
:1039F000FFF719FF02467B6913447B617B69184618
:103A00001837BD4680BD80B584B000AF786039609E
:103A100039687868FFF7F7FE0346FB607868FFF7C0
:103A200002FF0246FB681344FB60FB681846103730
:103A3000BD4680BD80B590B000AFF860B960134658
:103A4000FB7107F114032033FB63FB6B00221A7038
:103A5000FB79012B01D80A23FB71BB68BB63FB799F
:103A6000BA68B2FBF3F3BB60BB6BDAB2BB68DBB224
:103A7000F97911FB03F3DBB2D31A87F8373097F8E3
:103A80003730092B04D897F837303033DBB203E0F6
:103A900097F837303733DBB2FA6B013AFA63FA6BD7
:103AA0001370BB68002B00D0D7E7F96BF86814F0EF
:103AB00080FB034618464037BD4680BD90B58FB0A9
:103AC00000AFF86087ED000B0B46FB7200237B63B1
:103AD00097ED000B14F040FB0346002B05D06B491B
:103AE000F868FFF7B4FD0346CBE097ED000B14F048
:103AF00005FB0346002B05D06549F868FFF7A7FDD5
:103B00000346BEE04FF06042624BD7E9000111F07E
:103B1000ABFD0346002B05D05F49F868FFF797FD22
:103B20000346AEE04FF060425C4BD7E9000111F074
:103B30007DFD0346002B05D05749F868FFF787FD48
:103B400003469EE04FF000024FF00003D7E900016A
:103B500011F06CFD0346002B0DD02D21F868FFF706
:103B600084FD02467B6B13447B633B683B607B6850
:103B700083F000437B604FF00003494CC7E90A34EF
:103B8000002387F8273097F82720FB7A9A4210D233
:103B90004FF00002434BD7E90A0111F0FFFB034647
:103BA0000C46C7E90A3497F82730013387F82730E5
:103BB000E9E7D7E90A23D7E9000111F00FF9034635
:103BC0000C46C7E90034D7E9000111F095FD034622
:103BD0007B61786911F03EFA03460C461A4623468B
:103BE000D7E9000111F0F8F803460C46C7E906349E
:103BF0000A227969F868FFF7BCFD02467B6B134423
:103C00007B63FB7A002B07D02749F868FFF71FFD7D
:103C100002467B6B13447B63FB7A5A1EFA72002BBD
:103C200014BF01230023DBB2002B29D04FF0000288
:103C30001C4BD7E9060111F087FA03460C46C7E989
:103C40000634D7E9060111F02FFD03463B610A2235
:103C50003969F868FFF72DFD02467B6B13447B63DF
:103C6000386911F007FA03460C461A462346D7E98D
:103C7000060111F0B1F803460C46C7E90634CBE75C
:103C80007B6B18463C37BD4690BD00BF289A0108A3
:103C90002C9A0108FFFFEF41309A0108FFFFEFC1A6
:103CA0000000E03F00002440349A010880B586B04F
:103CB00002AFF860C7E900233B7E0093D7E90023F9
:103CC000F86800F007F8F868FFF7ADFD00BF10379F
:103CD000BD4680BD90B587B002AFF860C7E900234C
:103CE000D7E90034002B74F100030ADA2D21F868BB
:103CF000FFF7BBFCD7E900345B4264EB4404C7E93F
:103D0000003497F82030012B02D8022387F82030A6
:103D1000D7E9003497F8202000921A462346F86825
:103D200000F018F800BF1437BD4690BD80B586B0CE
:103D300002AFF860C7E900233B7E0093D7E9002378
:103D4000F86800F007F8F868FFF76DFD00BF10375E
:103D5000BD4680BD80B586B002AFF860C7E90023DC
:103D60003B7E012B01D802233B763B7E0093D7E9B3
:103D70000023F86800F004F800BF1037BD4680BD8E
:103D800090B597B000AFF860C7E9002300237B65CA
:103D9000D7E90034234304D13021F868FFF765FCEC
:103DA00050E0D7E90034234325D097F868304FF02E
:103DB0000004D7E900011A46234611F0BDFC1C4659
:103DC0001346184621467B6D5A1C7A65C2B207F12C
:103DD00058010B4403F8442C97F868304FF0000466
:103DE0001A462346D7E9000111F0A6FC03460C460B
:103DF000C7E90034D5E77B6D002B23D07B6D013BF9
:103E000007F15802134413F8443C092B09D87B6D81
:103E1000013B07F15802134413F8443C3033DBB242
:103E200008E07B6D013B07F15802134413F8443C52
:103E30003733DBB21946F868FFF717FC7B6D013B9F
:103E40007B65D8E75C37BD4690BD00BF80B500AF4D
:103E500010F0C8FC00F011F800F0B0F800F0AEFA75
:103E600000F08AF900F0E8FA00F07AFC00F0DEFCDD
:103E700000F0B2FBFCF7CCF9FEE780B594B000AFE0
:103E800000237B60394B1B6C384A43F0805313642A
:103E9000364B1B6C03F080537B607B6800233B60D8
:103EA000334B1B68324A43F440431360304B1B686A
:103EB00003F440433B603B680223FB610123BB6288
:103EC0001023FB6202237B630023BB631023FB638D
:103ED0004FF4B4733B6402237B640223BB6402236C
:103EE000FB6407F11C0318460EF03CFB0346002B55
:103EF00003D09F211F4800F05BF810F06DF80346D7
:103F0000002B03D0A6211B4800F052F80F23BB6002
:103F10000223FB6000233B614FF4A0537B614FF40D
:103F20008053BB6107F10803052118460CF09AFE87
:103F30000346002B03D0B4210E4800F039F80DF0F1
:103F4000A5F802460C4BA3FB02239B09184610F070
:103F500042FB042010F01BFC002200214FF0FF3038
:103F600010F0FBFA00BF5037BD4680BD003802405C
:103F700000700040489A0108D34D621080B400AF31
:103F8000044B1B680133034A136000BFBD465DF854
:103F9000047B70477009002080B400AF034B1B689E
:103FA0001846BD465DF8047B704700BF70090020CD
:103FB00080B483B000AF78603960FEE780B58AB026
:103FC00000AF00233B61664B1B6B654A43F0040363
:103FD0001363634B1B6B03F004033B613B690023DA
:103FE000FB605F4B1B6B5E4A43F0800313635C4BCB
:103FF0001B6B03F08003FB60FB680023BB60584B26
:104000001B6B574A43F001031363554B1B6B03F0C3
:104010000103BB60BB6800237B60514B1B6B504AA4
:1040200043F0020313634E4B1B6B03F002037B60F0
:104030007B6800233B604A4B1B6B494A43F00803F3
:104040001363474B1B6B03F008033B603B68002284
:1040500040F6030143480FF017F8002240F24141B7
:1040600041480FF011F800224FF400713F480FF063
:104070000BF8002204213E480FF006F84FF40053DD
:104080007B613C4BBB610123FB6107F114031946C3
:1040900034480EF05DFD40F603037B610123BB61F4
:1040A0000023FB6100233B6207F1140319462D48EE
:1040B0000EF04EFD41F20C437B610023BB610123F6
:1040C000FB6107F11403194626480EF041FD40F24A
:1040D00041437B610123BB610023FB6100233B6201
:1040E00007F11403194620480EF032FD4FF4007317
:1040F0007B610123BB610023FB6100233B6207F16D
:104100001403194619480EF023FD4FF404437B6154
:104110000023BB610123FB6107F114031946134817
:104120000EF016FD04237B610123BB610023FB61BC
:1041300000233B6207F1140319460D480EF008FDF9
:10414000A8237B610023BB610123FB6107F11403FA
:10415000194605480EF0FCFC00BF2837BD4680BD5F
:104160000038024000080240000402400000024003
:10417000000C02400000211080B584B000AF324B2B
:10418000324A1A60304B4FF480325A602E4B002274
:104190009A602D4B01221A612B4B00229A612A4B07
:1041A00000221A62284B0022DA62274B284A9A62C0
:1041B000254B0022DA60244B0322DA61224B0022D5
:1041C0001A63214B01225A611F4801F0B1FA0346DC
:1041D000002B03D048211F48FFF7EAFE01233B6074
:1041E00002237B600023BB603B461946164802F061
:1041F00054F80346002B03D052211648FFF7D8FE8F
:1042000004233B6003237B603B4619460E4802F0C3
:1042100044F80346002B03D05B210E48FFF7C8FE8D
:1042200000233B6001237B603B461946064802F0B1
:1042300034F80346002B03D064210648FFF7B8FE8C
:1042400000BF1037BD4680BD74090020002001402A
:104250000100000F589A010880B588B000AF78605F
:104260007B681B68144A934221D10023BB60134B27
:104270005B6C124A43F480735364104B5B6C03F421
:104280008073BB60BB681323FB6003233B61002387
:104290007B6107F10C03194609480EF059FC002216
:1042A0000021122010F059F9122010F072F900BF0D
:1042B0002037BD4680BD00BF0020014000380240CD
:1042C0000000024080B582B000AF78607B681B6858
:1042D000094A93420CD1094B5B6C084A23F4807362
:1042E0005364132106480EF0C5FD122010F05FF94B
:1042F00000BF0837BD4680BD0020014000380240A5
:104300000000024080B400AF00BFBD465DF8047BF2
:10431000704780B483B000AF03460A46FB71134672
:10432000BB7100BF0C37BD465DF8047B70470000D1
:1043300080B584B000AF78600023FB600DE0FB68BF
:104340007A6813441B78DB43D9B2084AFB681344EC
:104350000A461A70FB680133FB60FB680A2BEEDD2E
:1043600000F006F800BF1037BD4680BD44090020AC
:1043700080B500AF00224FF4007105480EF084FEB6
:104380000B220449044803F068FD00BF80BD00BF54
:104390000000024044090020D009002080B582B00E
:1043A00000AF786001224FF4007103480EF06CFEFC
:1043B00000BF0837BD4680BD0000024080B582B016
:1043C00000AF00237B601B4B1B6B1A4A43F40013A6
:1043D0001363184B1B6B03F400137B607B68002393
:1043E0003B60144B1B6B134A43F480031363114B64
:1043F0001B6B03F480033B603B680022002111200B
:1044000010F0ABF8112010F0C4F8002200213B207E
:1044100010F0A3F83B2010F0BCF80022002145204A
:1044200010F09BF8452010F0B4F800BF0837BD46E7
:1044300080BD00BF0038024080B500AF184B194A5C
:104440001A60174B4FF482725A60154B00229A6023
:10445000134B0022DA60124B00221A61104B00222B
:104460005A610F4B4FF400729A610D4B3822DA619A
:104470000B4B00221A620A4B00225A62084B0022A0
:104480009A62074B0A22DA62054803F059F803469C
:10449000002B03D047210448FFF78AFD00BF80BDF1
:1044A000D009002000300140689A010880B588B02A
:1044B00000AF78607B681B682E4A934255D1002379
:1044C000BB602D4B5B6C2C4A43F4805353642A4BE6
:1044D0005B6C03F48053BB60BB68E023FB6002238A
:1044E0003B6100237B610123BB610523FB6107F175
:1044F0000C03194621480EF02BFB214B214A1A6070
:104500001F4B4FF0C0625A601D4B40229A601C4BFB
:104510000022DA601A4B4FF480621A61184B0022B5
:104520005A61174B00229A61154B0022DA61144B35
:1045300000221A62124B00225A6211480EF01CFE31
:104540000346002B03D072210F48FFF731FD7B6833
:104550000B4A9A640A4A7B68936300220021232055
:104560000FF0FBFF232010F014F800BF2037BD46EA
:1045700080BD00BF00300140003802400000024012
:10458000280A002058640240689A010880B582B069
:1045900000AF78607B681B680C4A934211D10C4BCA
:1045A0005B6C0B4A23F480535364E02109480EF0FE
:1045B00061FC7B689B6C18460EF08CFE23200FF08C
:1045C000F6FF00BF0837BD4680BD00BF0030014088
:1045D000003802400000024080B586B000AF244B96
:1045E0004FF080421A60224B00225A60204B00227A
:1045F0009A601F4B41F2FF02DA601D4B00221A61E4
:104600001B4805F073F80346002B03D04C211948D2
:10461000FFF7CEFC4FF48053BB6007F10803194647
:10462000134807F0B3FF0346002B03D05221114873
:10463000FFF7BEFC00233B6000237B603B4619462E
:104640000B480AF0D9F80346002B03D0592109483A
:10465000FFF7AEFC064805F0FEF80346002B03D03A
:104660005F210448FFF7A4FC00BF1837BD4680BD9A
:10467000880A0020789A010880B584B000AF78607D
:104680007B681B68B3F1804F15D10023FB600C4B96
:104690001B6C0B4A43F001031364094B1B6C03F0C2
:1046A0000103FB60FB68002200211C200FF055FF76
:1046B0001C200FF06EFF00BF1037BD4680BD00BF4D
:1046C0000038024080B582B000AF78607B681B681C
:1046D000B3F1804F08D1064B1B6C054A23F0010350
:1046E00013641C200FF063FF00BF0837BD4680BD78
:1046F0000038024080B582B000AF7860012102200E
:10470000FFF707FE7B681B68B3F1804F18D1104B91
:104710001A68104B1B681A440F4B1B689A4207D843
:104720000D4B1A680A4B1B68D31A0B4A136004E03E
:10473000094B1B683233084A1360084B00221A7079
:1047400000210220FFF7E5FD00BF0837BD4680BD10
:104750001C0000202000002050090020180000202C
:1047600080B500AF2B4B2C4A1A602A4B2B4A9A601B
:10477000284B0022A3F81821264B0022A3F81A2167
:10478000244B0022A3F81C21224B0022A3F82A224A
:10479000204B0022A3F82C221E4B002283F81F215D
:1047A0001C4B00221A731B4B1B681D4A1A60194BC5
:1047B0001B6847F612225A60164B1B6800229A604B
:1047C000144B1B680022DA60124B1B6800221A612E
:1047D000104B1B680C225A610E4B1B6800229A6119
:1047E0000C4B1B680022DA610A4B1B6818460AF062
:1047F0001BF90346002B03D056210A48FFF7D8FBCC
:10480000044B1B680122084918460AF041FC00BF0E
:1048100080BD00BFB40D002024100020540D0020E6
:1048200000440040889A0108D20E002080B500AFF5
:104830002B4B2C4A1A602A4B2B4A9A60284B002299
:10484000A3F81821264B0022A3F81A21244B00229A
:10485000A3F81C21224B0022A3F82A22204B00227D
:10486000A3F82C221E4B002283F81F211C4B002290
:104870001A731B4B1B681D4A1A60194B1B684FF4B7
:10488000E1325A60164B1B6800229A60144B1B6879
:104890000022DA60124B1B6800221A61104B1B6861
:1048A0000C225A610E4B1B6800229A610C4B1B684C
:1048B0000022DA610A4B1B6818460AF0B5F8034675
:1048C000002B03D078210A48FFF772FB044B1B68CA
:1048D0000122084918460AF0DBFB00BF80BD00BF7B
:1048E000240B0020E40F0020C40A00200014014023
:1048F000889A0108420C002080B58AB000AF786029
:104900007B681B685C4A934256D100233B615B4B3A
:104910001B6C5A4A43F400331364584B1B6C03F46A
:1049200000333B613B690C237B610223BB610123A4
:10493000FB6103233B6207237B6207F114031946E3
:104940004F480EF005F94F4B4F4A1A604D4B4FF050
:1049500000625A604B4B40229A604A4B0022DA6058
:10496000484B4FF480621A61464B00225A61454B16
:1049700000229A61434B0022DA61424B00221A6204
:10498000404B00225A623F480EF0F6FB0346002BD4
:1049900003D0A3213D48FFF70BFB7B68394A1A631C
:1049A000384A7B6893630022002126200FF0D5FD52
:1049B00026200FF0EEFD5AE07B681B68344A9342D4
:1049C00055D10023FB602D4B5B6C2C4A43F0200338
:1049D00053642A4B5B6C03F02003FB60FB68C0232D
:1049E0007B610223BB610123FB6103233B6208233C
:1049F0007B6207F11403194626480EF0A9F8264BEE
:104A0000264A1A60244B4FF020625A60224B402203
:104A10009A60214B0022DA601F4B4FF480621A61CA
:104A20001D4B00225A611C4B00229A611A4B002236
:104A3000DA61194B00221A62174B00225A6216489B
:104A40000EF09AFB0346002B03D0D0210F48FFF74E
:104A5000AFFA7B68104A1A630F4A7B68936300229F
:104A6000002147200FF079FD47200FF092FD00BF95
:104A70002837BD4680BD00BF0044004000380240DA
:104A800000000240540D0020A0600240889A0108F6
:104A90000014014000080240C40A0020A064024043
:104AA00080B582B000AF78607B681B68184A93427B
:104AB00012D1184B1B6C174A23F4003313640C21DA
:104AC00015480EF0D7F97B681B6B18460EF002FCF8
:104AD00026200FF06CFD16E07B681B680F4A93429E
:104AE00011D10C4B5B6C0B4A23F020035364C021A3
:104AF0000B480EF0BFF97B681B6B18460EF0EAFB03
:104B000047200FF054FD00BF0837BD4680BD00BFF1
:104B10000044004000380240000002400014014000
:104B20000008024080B584B000AF78607B681B7BD2
:104B300083F00103DBB2002B49D07B68B3F81C3152
:104B40001BB29AB27B68B3F818311BB29BB2D31A6E
:104B50009BB2FB81B7F90E30002B1DDC7B68B3F8EC
:104B600018311BB29BB2C3F580739BB2FB817B688B
:104B70000022A3F81A217B6801221A737B68186847
:104B80007B680D337A68B2F8182112B21344FA899F
:104B900019460AF0CAFA1AE0B7F90E30002B16DDF2
:104BA0007B68B3F81C311AB27B68A3F81A217B68C2
:104BB00001221A737B6818687B680D337A68B2F833
:104BC000182112B21344FA8919460AF0AEFA00BF4E
:104BD0001037BD4680BD80B483B000AF78607B687D
:104BE000B3F82A321BB21A467B68134493F81F317C
:104BF000DBB218460C37BD465DF8047B704780B5C4
:104C000082B000AF03463960FB7100BF3B681B7B7D
:104C1000002BFBD13B68B3F81C311BB21A463B6832
:104C20001344FA795A733B68B3F81C311BB29BB238
:104C300001339BB21AB23B68A3F81C213B68B3F85E
:104C40001C311BB2FF2B03DD3B680022A3F81C21A3
:104C50003B68B3F81C311AB23B68B3F818311BB289
:104C60009A4214D13B68B3F81C311BB29BB2013B92
:104C70009BB21AB23B68A3F81C213B68B3F81C3105
:104C80001BB2002B03DA3B68FF22A3F81C21386813
:104C9000FFF748FF00BF0837BD4680BD80B584B030
:104CA00000AF78607868FFF796FF0346FB737B6878
:104CB000B3F82A321AB27B68B3F82C321BB29A428C
:104CC00014D07B68B3F82A321BB29BB201339BB27B
:104CD0001AB27B68A3F82A227B68B3F82A321BB287
:104CE000FF2B03DD7B680022A3F82A22FB7B1846FA
:104CF0001037BD4680BD80B485B000AF78607B685A
:104D0000B3F82C321BB29AB27B68B3F82A321BB2CA
:104D10009BB2D31AFB81FB8918461437BD465DF858
:104D2000047B704780B582B000AF78607B681B68F9
:104D30001D4A934217D11D4B00221A731B4BB3F827
:104D40001A311AB2194BA3F81821184BB3F81A31BB
:104D50001AB2164BB3F81C311BB29A421FD013483B
:104D6000FFF7E0FE1BE07B681B68114A934216D1F7
:104D7000104B00221A730F4BB3F81A311AB20D4BB5
:104D8000A3F818210B4BB3F81A311AB2094BB3F838
:104D90001C311BB29A4202D00648FFF7C3FE00BF87
:104DA0000837BD4680BD00BF00440040B40D002060
:104DB00000140140240B002080B582B000AF786061
:104DC00001210020FFF7A5FA7B681B68634A934224
:104DD0005AD101210120FFF79CFA614BB3F82C3224
:104DE0001BB219465E4B93F81E31DAB25C4B0B4492
:104DF00083F81F215A4BB3F82C321BB29BB20133FC
:104E00009BB21AB2564BA3F82C22554BB3F82C3256
:104E10001BB2FF2B03DD524B0022A3F82C220122F0
:104E2000504951480AF034F903461A464F4B1B6863
:104E300011464E4A60339B00134459600021012003
:104E4000FFF767FA7B681A68484B1B681146474AA8
:104E50009B0013445960424BB3F82C321AB2434BB7
:104E60001B681146414A20339B00134459603C4B58
:104E700093F81E31DAB23D4B1B6811463B4A403372
:104E80009B001344596056E07B681B68384A934284
:104E900051D1384BB3F82C321BB21946354B93F82D
:104EA0001E31DAB2334B0B4483F81F21314BB3F878
:104EB0002C321BB29BB201339BB21AB22D4BA3F81A
:104EC0002C222C4BB3F82C321BB2FF2B03DD294BC9
:104ED0000022A3F82C220122274928480AF0D8F8FA
:104EE00003461A46214B1B681146204A60339B003B
:104EF000134459607B681A681C4B1B6811461B4A97
:104F00009B00134459601B4BB3F82C321AB2174B59
:104F10001B681146154A20339B0013445960154BFA
:104F200093F81E31DAB2114B1B6811460F4A403319
:104F30009B001344596000210020FFF7EAF90B4B56
:104F40001B680133094A1360084B1B6803F01F03F9
:104F5000064A136000BF0837BD4680BD00440040CC
:104F6000B40D0020D20E0020241000206410002078
:104F700000140140240B0020420C0020E40F00200C
:104F800080B500AF0122034903480AF081F800BF51
:104F900080BD00BF420C0020E40F002080B483B02D
:104FA00000AF78607B68DB6B102B09D17B681B68D6
:104FB000064A93427B68DB6B23F010027B68DA635E
:104FC00000BF0C37BD465DF8047B704700440040CD
:104FD00080B483B000AF7860FEE780B483B000AFE8
:104FE0007860FEE780B483B000AF7860FEE700BF72
:104FF00080B400AF00BFBD465DF8047B704780B44D
:1050000000AFFEE780B400AFFEE780B400AFFEE77C
:1050100080B400AFFEE780B400AF00BFBD465DF8CE
:10502000047B704780B400AF00BFBD465DF8047BD1
:10503000704780B400AF00BFBD465DF8047B704789
:1050400080B500AF0FF05AFC0FF0BEFB00BF80BD73
:1050500080B500AF02480EF095FB00BF80BD00BFD9
:10506000540D002080B500AF024800F084FE00BF60
:1050700080BD00BF7409002080B500AF024806F073
:1050800097FB00BF80BD00BF880A002080B500AF3D
:10509000024803F0D2FC00BF80BD00BFD009002051
:1050A00080B500AF02480AF05BFC00BF80BD00BFC6
:1050B0002410002080B500AF02480EF063FB00BF53
:1050C00080BD00BF280A002080B500AF02480EF066
:1050D00059FB00BF80BD00BFC40A002080B500AFEF
:1050E00002480AF03DFC00BF80BD00BFE40F002075
:1050F00080B582B000AF00237B60254B5B6C244AF7
:1051000043F480435364224B5B6C03F480437B6025
:105110007B6800233B601E4B1B6C1D4A43F0805391
:1051200013641B4B1B6C03F080533B603B680720F0
:105130000FF008FA002200216FF00B000FF00DFABB
:10514000002200216FF00A000FF007FA0022002170
:105150006FF009000FF001FA002200216FF0040047
:105160000FF0FBF9002200216FF003000FF0F5F9BA
:10517000002200216FF001000FF0EFF90022002162
:105180004FF0FF300FF0E9F900BF0837BD4680BD92
:105190000038024080B483B000AF7860044A7B6876
:1051A000136000BF0C37BD465DF8047B704700BF3D
:1051B0006812002080B400AFFEE780B500AF0A207F
:1051C000FFF7E8FFFEE780B500AF0B20FFF7E2FF37
:1051D00000BF80BD80B500AF0C20FFF7DBFF00BF34
:1051E00080BD80B500AF0D20FFF7D4FF00BF80BDAC
:1051F00080B500AF0E20FFF7CDFF00BF80BD80B5AA
:1052000000AF0F20FFF7C6FF00BF80BD80B500AF25
:105210001020FFF7BFFF00BF80BD80B500AF112099
:10522000FFF7B8FF00BF80BD80B500AF1220FFF7C9
:10523000B1FF00BF80BD80B500AF1320FFF7AAFF0C
:1052400000BF80BD80B500AF1420FFF7A3FF00BFF3
:1052500080BD80B500AF1520FFF79CFF00BF80BD6B
:1052600080B500AF1620FFF795FF00BF80BD80B569
:1052700000AF1720FFF78EFF00BF80BD80B500AFE5
:105280001820FFF787FF00BF80BD80B500AF192051
:10529000FFF780FF00BF80BD80B500AF1A20FFF789
:1052A00079FF00BF80BD80B500AF1D20FFF772FF02
:1052B00000BF80BD80B500AF1E20FFF76BFF00BFB1
:1052C00080BD80B500AF1F20FFF764FF00BF80BD29
:1052D00080B500AF2020FFF75DFF00BF80BD80B527
:1052E00000AF2120FFF756FF00BF80BD80B500AFA3
:1052F0002220FFF74FFF00BF80BD80B500AF242004
:10530000FFF748FF00BF80BD80B500AF2520FFF745
:1053100041FF00BF80BD80B500AF2720FFF73AFFF7
:1053200000BF80BD80B500AF2820FFF733FF00BF6E
:1053300080BD80B500AF2920FFF72CFF00BF80BDE6
:1053400080B500AF2A20FFF725FF00BF80BD80B5E4
:1053500000AF2B20FFF71EFF00BF80BD80B500AF60
:105360002C20FFF717FF00BF80BD80B500AF2E20B7
:10537000FFF710FF00BF80BD80B500AF2F20FFF703
:1053800009FF00BF80BD80B500AF3120FFF702FFED
:1053900000BF80BD80B500AF3220FFF7FBFE00BF2D
:1053A00080BD80B500AF3320FFF7F4FE00BF80BDA5
:1053B00080B500AF3420FFF7EDFE00BF80BD80B5A3
:1053C00000AF3520FFF7E6FE00BF80BD80B500AF1F
:1053D0003620FFF7DFFE00BF80BD80B500AF37206D
:1053E000FFF7D8FE00BF80BD80B500AF3820FFF7C3
:1053F000D1FE00BF80BD80B500AF3920FFF7CAFEE7
:1054000000BF80BD80B500AF3A20FFF7C3FE00BFEC
:1054100080BD80B500AF3B20FFF7BCFE00BF80BD64
:1054200080B500AF3C20FFF7B5FE00BF80BD80B562
:1054300000AF3D20FFF7AEFE00BF80BD80B500AFDE
:105440003E20FFF7A7FE00BF80BD80B500AF3F2024
:10545000FFF7A0FE00BF80BD80B500AF4020FFF782
:1054600099FE00BF80BD80B500AF4120FFF792FEDE
:1054700000BF80BD80B500AF4220FFF78BFE00BFAC
:1054800080BD80B500AF4320FFF784FE00BF80BD24
:1054900080B500AF4420FFF77DFE00BF80BD80B522
:1054A00000AF4620FFF776FE00BF80BD80B500AF9D
:1054B0004820FFF76FFE00BF80BD80B500AF4920D8
:1054C000FFF768FE00BF80BD80B500AF4A20FFF740
:1054D00061FE00BF80BD80B500AF4B20FFF75AFED4
:1054E00000BF80BD80B500AF4C20FFF753FE00BF6A
:1054F00080BD80B500AF4D20FFF74CFE00BF80BDE2
:1055000080B500AF4E20FFF745FE00BF80BD80B5DF
:1055100000AF4F20FFF73EFE00BF80BD80B500AF5B
:105520005120FFF737FE00BF80BD80B500AF53208C
:10553000FFF730FE00BF80BD80B500AF5420FFF7FD
:1055400029FE00BF80BD80B500AF5520FFF722FEC9
:1055500000BF80BD80B500AF5620FFF71BFE00BF27
:1055600080BD80B500AF5720FFF714FE00BF80BD9F
:1055700080B500AF5820FFF70DFE00BF80BD80B59D
:1055800000AF5920FFF706FE00BF80BD80B500AF19
:105590005A20FFF7FFFD00BF80BD80B500AF5B2044
:1055A000FFF7F8FD00BF80BD80B500AF5C20FFF7BE
:1055B000F1FD00BF80BD80B500AF5D20FFF7EAFDC3
:1055C00000BF80BD80B500AF5E20FFF7E3FD00BFE8
:1055D00080BD80B500AF5F20FFF7DCFD00BF80BD60
:1055E00080B500AF6020FFF7D5FD00BF80BD80B55E
:1055F00000AF6120FFF7CEFD00BF80BD80B500AFDA
:105600006220FFF7C7FD00BF80BD80B500AF6320FB
:10561000FFF7C0FD00BF80BD80B500AF6420FFF77D
:10562000B9FD00BF80BD80B500AF6520FFF7B2FDBA
:1056300000BF80BD80B500AF6620FFF7ABFD00BFA7
:1056400080BD80B500AF6720FFF7A4FD00BF80BD1F
:1056500080B500AF6820FFF79DFD00BF80BD80B51D
:1056600000AF6920FFF796FD00BF80BD80B500AF99
:105670006A20FFF78FFD00BF80BD80B500AF6B20B3
:10568000FFF788FD00BF80BD80B500AF6C20FFF73D
:1056900081FD00BF80BD80B500AF6D20FFF77AFDB2
:1056A00000BF80BD80B500AF6E20FFF773FD00BF67
:1056B00080BD80B500AF6F20FFF76CFD00BF80BDDF
:1056C00080B500AF7020FFF765FD00BF80BD80B5DD
:1056D00000AF7120FFF75EFD00BF80BD80B500AF59
:1056E0007220FFF757FD00BF80BD80B500AF73206B
:1056F000FFF750FD00BF80BD80B500AF7420FFF7FD
:1057000049FD00BF80BD80B500AF7520FFF742FDA9
:1057100000BF80BD80B500AF7620FFF73BFD00BF26
:1057200080BD80B500AF7720FFF734FD00BF80BD9E
:1057300080B584B000AF78600023FB737B68002BDA
:1057400001D1012333E07B681B6C002B09D17B68FE
:1057500000225A647B68002283F83C207868FEF7B8
:105760007BFD7B681B6C03F01003002B18D17B685A
:105770001B6C23F4885323F0020343F002027B687E
:105780001A64786800F028FF7B6800225A647B68FE
:105790001B6C23F0030343F001027B681A6401E0F1
:1057A0000123FB737B68002283F83C20FB7B1846B7
:1057B0001037BD4680BD80B584B000AF786000234F
:1057C000FB737B68002B01D1012322E07B681B6CFB
:1057D00043F002027B681A647B681B689A687B68E6
:1057E0001B6822F001029A607B681B689B6803F0CB
:1057F0000103002B08D17868FEF764FD7B68002266
:105800005A647B6800221A647B68002283F83C207B
:10581000FB7B18461037BD4680BD80B483B000AF17
:10582000786000BF0C37BD465DF8047B704780B4DC
:1058300083B000AF786000BF0C37BD465DF8047BD5
:10584000704780B485B000AF78600023BB607B6890
:1058500093F83C30012B01D1022389E07B680122BF
:1058600083F83C207B681B689B6803F00103012BD5
:1058700018D07B681B689A687B681B6842F001023D
:105880009A603E4B1B683E4AA2FB03239A0C1346C8
:105890005B001344BB6002E0BB68013BBB60BB68BC
:1058A000002BF9D17B681B689B6803F00103002B78
:1058B0005DD07B681B6C23F4E06323F0010343F4A9
:1058C00080727B681A647B681B685B6803F4806382
:1058D000002B07D07B681B6C23F4405343F48052A9
:1058E0007B681A647B681B6C03F48053002B06D022
:1058F0007B685B6C23F006027B685A6402E07B687D
:1059000000225A647B68002283F83C201D4BFB6018
:105910007B681B686FF022021A60FB685B6803F00B
:105920001F03002B0FD17B681B689B6803F040535B
:10593000002B1CD17B681B689A687B681B6842F04F
:1059400080429A6013E07B681B680F4A93420ED135
:105950007B681B689B6803F04053002B07D17B6872
:105960001B689A687B681B6842F080429A6000233B
:1059700018461437BD465DF8047B70472C000020A4
:1059800083DE1B43002301400020014080B483B02C
:1059900000AF78607B6893F83C30012B01D1022383
:1059A00021E07B68012283F83C207B681B689A68B1
:1059B0007B681B6822F001029A607B681B689B6809
:1059C00003F00103002B09D17B681B6C23F488537F
:1059D00023F0010343F001027B681A647B68002214
:1059E00083F83C20002318460C37BD465DF8047B45
:1059F000704780B584B000AF786039600023FB60E9
:105A00007B681B689B6803F48063002B12D07B6863
:105A10001B689B6803F48073002B0BD07B681B6CA6
:105A200043F020027B681A647B68002283F83C20E4
:105A300001235CE00EF076FFF8601AE03B68B3F1FA
:105A4000FF3F16D03B68002B07D00EF06BFF0246DD
:105A5000FB68D31A3A689A420BD27B681B6C43F0FE
:105A600004027B681A647B68002283F83C200323CD
:105A70003DE07B681B681B6803F00203022BDDD14D
:105A80007B681B686FF012021A607B681B6C43F422
:105A900000727B681A647B681B689B6803F0405344
:105AA000002B23D17B689B69002B1FD17B681B686F
:105AB000DB6A03F47003002B06D07B681B689B68CD
:105AC00003F48063002B11D17B681B6C23F480727C
:105AD0007B681A647B681B6C03F48053002B05D130
